{
  "contractName": "Register",
  "abi": [
    {
      "constant": false,
      "inputs": [
        {
          "name": "_fid",
          "type": "bytes20"
        },
        {
          "name": "_title",
          "type": "string"
        }
      ],
      "name": "createFile",
      "outputs": [],
      "payable": false,
      "stateMutability": "nonpayable",
      "type": "function"
    },
    {
      "constant": true,
      "inputs": [
        {
          "name": "_fid",
          "type": "bytes20"
        }
      ],
      "name": "getFile",
      "outputs": [
        {
          "name": "",
          "type": "string"
        },
        {
          "name": "",
          "type": "address"
        }
      ],
      "payable": false,
      "stateMutability": "view",
      "type": "function"
    },
    {
      "inputs": [],
      "payable": false,
      "stateMutability": "nonpayable",
      "type": "constructor"
    },
    {
      "anonymous": false,
      "inputs": [
        {
          "indexed": false,
          "name": "owner",
          "type": "address"
        },
        {
          "indexed": false,
          "name": "fid",
          "type": "bytes20"
        },
        {
          "indexed": false,
          "name": "title",
          "type": "string"
        }
      ],
      "name": "CreateFile",
      "type": "event"
    }
  ],
  "bytecode": "0x6060604052341561000f57600080fd5b6107018061001e6000396000f30060606040526004361061004c576000357c0100000000000000000000000000000000000000000000000000000000900463ffffffff168063870ec4e714610051578063ce63b7fb146100c6575b600080fd5b341561005c57600080fd5b6100c460048080356bffffffffffffffffffffffff191690602001909190803590602001908201803590602001908080601f016020809104026020016040519081016040528093929190818152602001838380828437820191505050505050919050506101a4565b005b34156100d157600080fd5b6100f660048080356bffffffffffffffffffffffff1916906020019091905050610489565b60405180806020018373ffffffffffffffffffffffffffffffffffffffff1673ffffffffffffffffffffffffffffffffffffffff168152602001828103825284818151815260200191508051906020019080838360005b8381101561016857808201518184015260208101905061014d565b50505050905090810190601f1680156101955780820380516001836020036101000a031916815260200191505b50935050505060405180910390f35b6000806000846bffffffffffffffffffffffff19166bffffffffffffffffffffffff191681526020019081526020016000209050828160000160006101000a81548173ffffffffffffffffffffffffffffffffffffffff02191690836c01000000000000000000000000900402179055508181600101908051906020019061022d929190610595565b50338160020160006101000a81548173ffffffffffffffffffffffffffffffffffffffff021916908373ffffffffffffffffffffffffffffffffffffffff16021790555080600080856bffffffffffffffffffffffff19166bffffffffffffffffffffffff191681526020019081526020016000206000820160009054906101000a90046c01000000000000000000000000028160000160006101000a81548173ffffffffffffffffffffffffffffffffffffffff02191690836c010000000000000000000000009004021790555060018201816001019080546001816001161561010002031660029004610323929190610615565b506002820160009054906101000a900473ffffffffffffffffffffffffffffffffffffffff168160020160006101000a81548173ffffffffffffffffffffffffffffffffffffffff021916908373ffffffffffffffffffffffffffffffffffffffff1602179055509050507f0a415eb2b95fcb20ceceda4dbd914184af7593859afba12923e4e841da5ae4d7338484604051808473ffffffffffffffffffffffffffffffffffffffff1673ffffffffffffffffffffffffffffffffffffffff168152602001836bffffffffffffffffffffffff19166bffffffffffffffffffffffff1916815260200180602001828103825283818151815260200191508051906020019080838360005b8381101561044857808201518184015260208101905061042d565b50505050905090810190601f1680156104755780820380516001836020036101000a031916815260200191505b5094505050505060405180910390a1505050565b61049161069c565b600080600080856bffffffffffffffffffffffff19166bffffffffffffffffffffffff191681526020019081526020016000209050806001018160020160009054906101000a900473ffffffffffffffffffffffffffffffffffffffff16818054600181600116156101000203166002900480601f0160208091040260200160405190810160405280929190818152602001828054600181600116156101000203166002900480156105845780601f1061055957610100808354040283529160200191610584565b820191906000526020600020905b81548152906001019060200180831161056757829003601f168201915b505050505091509250925050915091565b828054600181600116156101000203166002900490600052602060002090601f016020900481019282601f106105d657805160ff1916838001178555610604565b82800160010185558215610604579182015b828111156106035782518255916020019190600101906105e8565b5b50905061061191906106b0565b5090565b828054600181600116156101000203166002900490600052602060002090601f016020900481019282601f1061064e578054855561068b565b8280016001018555821561068b57600052602060002091601f016020900482015b8281111561068a57825482559160010191906001019061066f565b5b50905061069891906106b0565b5090565b602060405190810160405280600081525090565b6106d291905b808211156106ce5760008160009055506001016106b6565b5090565b905600a165627a7a72305820ef3a1c0a3f694a2b7f7d97500ae13a1bad8867436769f109d8b76190d9dea9310029",
  "source": "pragma solidity ^0.4.17;\n\ncontract Register {\n    struct File {\n        bytes20 fid;\n        string title;\n        address owner;\n    }\n\n    mapping(bytes20 => File) fileList;\n\n    event CreateFile(address owner, bytes20 fid, string title);\n\n    function Register() public {\n\n    }\n\n    function createFile(bytes20 _fid, string _title) public {\n        File storage newFile = fileList[_fid];\n        newFile.fid = _fid;\n        newFile.title = _title;\n        newFile.owner = msg.sender;\n        fileList[_fid] = newFile;\n        CreateFile(msg.sender, _fid, _title);\n    }\n\n    function getFile(bytes20 _fid) public view returns (string, address) {\n        File storage file = fileList[_fid];\n        return (file.title, file.owner);\n    }\n}\n",
  "sourcePath": "/home/zqz/Documents/software-course/contract/contracts/Register.sol",
  "compiler": {
    "name": "solc",
    "version": "0.4.18+commit.9cf6e910.Emscripten.clang"
  },
  "schemaVersion": "1.0.1",
  "updatedAt": "2018-05-13T08:33:03.939Z"
}