{
  "contractName": "Register",
  "abi": [
    {
      "constant": false,
      "inputs": [
        {
          "name": "_addr",
          "type": "address"
        },
        {
          "name": "_message",
          "type": "string"
        }
      ],
      "name": "requestHandler",
      "outputs": [],
      "payable": true,
      "stateMutability": "payable",
      "type": "function"
    },
    {
      "constant": false,
      "inputs": [
        {
          "name": "_fid",
          "type": "bytes20"
        },
        {
          "name": "_title",
          "type": "string"
        },
        {
          "name": "_keyword",
          "type": "string"
        },
        {
          "name": "_summary",
          "type": "string"
        },
        {
          "name": "_hash",
          "type": "bytes20"
        }
      ],
      "name": "createFile",
      "outputs": [],
      "payable": false,
      "stateMutability": "nonpayable",
      "type": "function"
    },
    {
      "constant": false,
      "inputs": [
        {
          "name": "_fid",
          "type": "bytes20"
        },
        {
          "name": "_price",
          "type": "uint256"
        }
      ],
      "name": "newHandler",
      "outputs": [],
      "payable": false,
      "stateMutability": "nonpayable",
      "type": "function"
    },
    {
      "constant": true,
      "inputs": [
        {
          "name": "_fid",
          "type": "bytes20"
        }
      ],
      "name": "getHandler",
      "outputs": [
        {
          "name": "",
          "type": "address"
        },
        {
          "name": "",
          "type": "uint256"
        }
      ],
      "payable": false,
      "stateMutability": "view",
      "type": "function"
    },
    {
      "constant": false,
      "inputs": [
        {
          "name": "_fid",
          "type": "bytes20"
        }
      ],
      "name": "deleteFile",
      "outputs": [],
      "payable": false,
      "stateMutability": "nonpayable",
      "type": "function"
    },
    {
      "constant": false,
      "inputs": [
        {
          "name": "_addr",
          "type": "address"
        }
      ],
      "name": "cancelRequest",
      "outputs": [],
      "payable": false,
      "stateMutability": "nonpayable",
      "type": "function"
    },
    {
      "constant": false,
      "inputs": [
        {
          "name": "_addr",
          "type": "address"
        },
        {
          "name": "_from",
          "type": "address"
        },
        {
          "name": "_password",
          "type": "string"
        }
      ],
      "name": "respondHandler",
      "outputs": [],
      "payable": false,
      "stateMutability": "nonpayable",
      "type": "function"
    },
    {
      "constant": true,
      "inputs": [
        {
          "name": "_fid",
          "type": "bytes20"
        }
      ],
      "name": "getFile",
      "outputs": [
        {
          "name": "",
          "type": "string"
        },
        {
          "name": "",
          "type": "string"
        },
        {
          "name": "",
          "type": "string"
        },
        {
          "name": "",
          "type": "bytes20"
        },
        {
          "name": "",
          "type": "address"
        },
        {
          "name": "",
          "type": "uint256"
        }
      ],
      "payable": false,
      "stateMutability": "view",
      "type": "function"
    },
    {
      "inputs": [],
      "payable": false,
      "stateMutability": "nonpayable",
      "type": "constructor"
    },
    {
      "anonymous": false,
      "inputs": [
        {
          "indexed": false,
          "name": "owner",
          "type": "address"
        },
        {
          "indexed": false,
          "name": "fid",
          "type": "bytes20"
        },
        {
          "indexed": false,
          "name": "title",
          "type": "string"
        },
        {
          "indexed": false,
          "name": "keyword",
          "type": "string"
        },
        {
          "indexed": false,
          "name": "summary",
          "type": "string"
        },
        {
          "indexed": false,
          "name": "hash",
          "type": "bytes20"
        }
      ],
      "name": "CreateFile",
      "type": "event"
    },
    {
      "anonymous": false,
      "inputs": [
        {
          "indexed": false,
          "name": "owner",
          "type": "address"
        },
        {
          "indexed": false,
          "name": "fid",
          "type": "bytes20"
        }
      ],
      "name": "DeleteFile",
      "type": "event"
    },
    {
      "anonymous": false,
      "inputs": [
        {
          "indexed": false,
          "name": "handler",
          "type": "address"
        },
        {
          "indexed": false,
          "name": "fid",
          "type": "bytes20"
        }
      ],
      "name": "NewHandler",
      "type": "event"
    },
    {
      "anonymous": false,
      "inputs": [
        {
          "indexed": false,
          "name": "handler",
          "type": "address"
        },
        {
          "indexed": false,
          "name": "from",
          "type": "address"
        },
        {
          "indexed": false,
          "name": "message",
          "type": "string"
        }
      ],
      "name": "RequestHandler",
      "type": "event"
    },
    {
      "anonymous": false,
      "inputs": [
        {
          "indexed": false,
          "name": "handler",
          "type": "address"
        },
        {
          "indexed": false,
          "name": "from",
          "type": "address"
        },
        {
          "indexed": false,
          "name": "password",
          "type": "string"
        }
      ],
      "name": "RespondHandler",
      "type": "event"
    },
    {
      "anonymous": false,
      "inputs": [
        {
          "indexed": false,
          "name": "handler",
          "type": "address"
        },
        {
          "indexed": false,
          "name": "from",
          "type": "address"
        }
      ],
      "name": "CancelRequest",
      "type": "event"
    }
  ],
  "bytecode": "0x6060604052341561000f57600080fd5b612a968061001e6000396000f30060606040526004361061008d576000357c0100000000000000000000000000000000000000000000000000000000900463ffffffff168062483357146100925780630879e30b1461010357806334b5ab9b14610216578063990913d814610251578063a413cb8f146102ca578063af98f757146102fc578063b878491814610335578063ce63b7fb146103d0575b600080fd5b610101600480803573ffffffffffffffffffffffffffffffffffffffff1690602001909190803590602001908201803590602001908080601f016020809104026020016040519081016040528093929190818152602001838380828437820191505050505050919050506105b2565b005b341561010e57600080fd5b61021460048080356bffffffffffffffffffffffff191690602001909190803590602001908201803590602001908080601f0160208091040260200160405190810160405280939291908181526020018383808284378201915050505050509190803590602001908201803590602001908080601f0160208091040260200160405190810160405280939291908181526020018383808284378201915050505050509190803590602001908201803590602001908080601f016020809104026020016040519081016040528093929190818152602001838380828437820191505050505050919080356bffffffffffffffffffffffff19169060200190919050506107dc565b005b341561022157600080fd5b61024f60048080356bffffffffffffffffffffffff1916906020019091908035906020019091905050610cf1565b005b341561025c57600080fd5b61028160048080356bffffffffffffffffffffffff1916906020019091905050610fd1565b604051808373ffffffffffffffffffffffffffffffffffffffff1673ffffffffffffffffffffffffffffffffffffffff1681526020018281526020019250505060405180910390f35b34156102d557600080fd5b6102fa60048080356bffffffffffffffffffffffff1916906020019091905050611040565b005b341561030757600080fd5b610333600480803573ffffffffffffffffffffffffffffffffffffffff1690602001909190505061134d565b005b341561034057600080fd5b6103ce600480803573ffffffffffffffffffffffffffffffffffffffff1690602001909190803573ffffffffffffffffffffffffffffffffffffffff1690602001909190803590602001908201803590602001908080601f0160208091040260200160405190810160405280939291908181526020018383808284378201915050505050509190505061149b565b005b34156103db57600080fd5b61040060048080356bffffffffffffffffffffffff19169060200190919050506116f9565b60405180806020018060200180602001876bffffffffffffffffffffffff19166bffffffffffffffffffffffff191681526020018673ffffffffffffffffffffffffffffffffffffffff1673ffffffffffffffffffffffffffffffffffffffff16815260200185815260200184810384528a818151815260200191508051906020019080838360005b838110156104a4578082015181840152602081019050610489565b50505050905090810190601f1680156104d15780820380516001836020036101000a031916815260200191505b50848103835289818151815260200191508051906020019080838360005b8381101561050a5780820151818401526020810190506104ef565b50505050905090810190601f1680156105375780820380516001836020036101000a031916815260200191505b50848103825288818151815260200191508051906020019080838360005b83811015610570578082015181840152602081019050610555565b50505050905090810190601f16801561059d5780820380516001836020036101000a031916815260200191505b50995050505050505050505060405180910390f35b60008290508073ffffffffffffffffffffffffffffffffffffffff1663b3e367373433856040518463ffffffff167c0100000000000000000000000000000000000000000000000000000000028152600401808373ffffffffffffffffffffffffffffffffffffffff1673ffffffffffffffffffffffffffffffffffffffff16815260200180602001828103825283818151815260200191508051906020019080838360005b83811015610673578082015181840152602081019050610658565b50505050905090810190601f1680156106a05780820380516001836020036101000a031916815260200191505b5093505050506000604051808303818588803b15156106be57600080fd5b6125ee5a03f115156106cf57600080fd5b505050507fee3b6e582c27eb598331992fd296083eda9fe98399dbdc557fda62af05424049833384604051808473ffffffffffffffffffffffffffffffffffffffff1673ffffffffffffffffffffffffffffffffffffffff1681526020018373ffffffffffffffffffffffffffffffffffffffff1673ffffffffffffffffffffffffffffffffffffffff16815260200180602001828103825283818151815260200191508051906020019080838360005b8381101561079b578082015181840152602081019050610780565b50505050905090810190601f1680156107c85780820380516001836020036101000a031916815260200191505b5094505050505060405180910390a1505050565b6000806000876bffffffffffffffffffffffff19166bffffffffffffffffffffffff191681526020019081526020016000209050858160000160006101000a81548173ffffffffffffffffffffffffffffffffffffffff02191690836c010000000000000000000000009004021790555084816001019080519060200190610865929190611987565b50338160050160006101000a81548173ffffffffffffffffffffffffffffffffffffffff021916908373ffffffffffffffffffffffffffffffffffffffff160217905550838160020190805190602001906108c1929190611987565b50828160030190805190602001906108da929190611987565b50818160040160006101000a81548173ffffffffffffffffffffffffffffffffffffffff02191690836c01000000000000000000000000900402179055506001816006018190555080600080886bffffffffffffffffffffffff19166bffffffffffffffffffffffff191681526020019081526020016000206000820160009054906101000a90046c01000000000000000000000000028160000160006101000a81548173ffffffffffffffffffffffffffffffffffffffff02191690836c0100000000000000000000000090040217905550600182018160010190805460018160011615610100020316600290046109d4929190611a07565b50600282018160020190805460018160011615610100020316600290046109fc929190611a07565b5060038201816003019080546001816001161561010002031660029004610a24929190611a07565b506004820160009054906101000a90046c01000000000000000000000000028160040160006101000a81548173ffffffffffffffffffffffffffffffffffffffff02191690836c01000000000000000000000000900402179055506005820160009054906101000a900473ffffffffffffffffffffffffffffffffffffffff168160050160006101000a81548173ffffffffffffffffffffffffffffffffffffffff021916908373ffffffffffffffffffffffffffffffffffffffff160217905550600682015481600601559050507f505481c6415e7ab86f5616ea9ecbd2237466b62bc3f63ac6ac2bdf568727c5bb338787878787604051808773ffffffffffffffffffffffffffffffffffffffff1673ffffffffffffffffffffffffffffffffffffffff168152602001866bffffffffffffffffffffffff19166bffffffffffffffffffffffff19168152602001806020018060200180602001856bffffffffffffffffffffffff19166bffffffffffffffffffffffff19168152602001848103845288818151815260200191508051906020019080838360005b83811015610bdc578082015181840152602081019050610bc1565b50505050905090810190601f168015610c095780820380516001836020036101000a031916815260200191505b50848103835287818151815260200191508051906020019080838360005b83811015610c42578082015181840152602081019050610c27565b50505050905090810190601f168015610c6f5780820380516001836020036101000a031916815260200191505b50848103825286818151815260200191508051906020019080838360005b83811015610ca8578082015181840152602081019050610c8d565b50505050905090810190601f168015610cd55780820380516001836020036101000a031916815260200191505b50995050505050505050505060405180910390a1505050505050565b6000806000806000866bffffffffffffffffffffffff19166bffffffffffffffffffffffff19168152602001908152602001600020925060008360060154118015610d8b57503373ffffffffffffffffffffffffffffffffffffffff168360050160009054906101000a900473ffffffffffffffffffffffffffffffffffffffff1673ffffffffffffffffffffffffffffffffffffffff16145b1515610d9657600080fd5b338585610da1611a8e565b808473ffffffffffffffffffffffffffffffffffffffff1673ffffffffffffffffffffffffffffffffffffffff168152602001836bffffffffffffffffffffffff19166bffffffffffffffffffffffff191681526020018281526020019350505050604051809103906000f0801515610e1957600080fd5b915060016000866bffffffffffffffffffffffff19166bffffffffffffffffffffffff191681526020019081526020016000209050818160000160006101000a81548173ffffffffffffffffffffffffffffffffffffffff021916908373ffffffffffffffffffffffffffffffffffffffff160217905550600181600101819055508060016000876bffffffffffffffffffffffff19166bffffffffffffffffffffffff191681526020019081526020016000206000820160009054906101000a900473ffffffffffffffffffffffffffffffffffffffff168160000160006101000a81548173ffffffffffffffffffffffffffffffffffffffff021916908373ffffffffffffffffffffffffffffffffffffffff160217905550600182015481600101559050507facde15acd634ac2605497c9d660168c4a8fc8e1d4b6e343e39f47b3d56ee28988286604051808373ffffffffffffffffffffffffffffffffffffffff1673ffffffffffffffffffffffffffffffffffffffff168152602001826bffffffffffffffffffffffff19166bffffffffffffffffffffffff191681526020019250505060405180910390a15050505050565b600080600060016000856bffffffffffffffffffffffff19166bffffffffffffffffffffffff1916815260200190815260200160002090508060000160009054906101000a900473ffffffffffffffffffffffffffffffffffffffff1681600101548191509250925050915091565b6000806000836bffffffffffffffffffffffff19166bffffffffffffffffffffffff1916815260200190815260200160002090506000816006015411151561108757600080fd5b3373ffffffffffffffffffffffffffffffffffffffff168160050160009054906101000a900473ffffffffffffffffffffffffffffffffffffffff1673ffffffffffffffffffffffffffffffffffffffff161415156110e557600080fd5b6000816006018190555080600080846bffffffffffffffffffffffff19166bffffffffffffffffffffffff191681526020019081526020016000206000820160009054906101000a90046c01000000000000000000000000028160000160006101000a81548173ffffffffffffffffffffffffffffffffffffffff02191690836c0100000000000000000000000090040217905550600182018160010190805460018160011615610100020316600290046111a1929190611a07565b50600282018160020190805460018160011615610100020316600290046111c9929190611a07565b50600382018160030190805460018160011615610100020316600290046111f1929190611a07565b506004820160009054906101000a90046c01000000000000000000000000028160040160006101000a81548173ffffffffffffffffffffffffffffffffffffffff02191690836c01000000000000000000000000900402179055506005820160009054906101000a900473ffffffffffffffffffffffffffffffffffffffff168160050160006101000a81548173ffffffffffffffffffffffffffffffffffffffff021916908373ffffffffffffffffffffffffffffffffffffffff160217905550600682015481600601559050507f3a76d7239ef3b0da59b75b152172967177e86dc1e1fb896851c2c67fb131b4843383604051808373ffffffffffffffffffffffffffffffffffffffff1673ffffffffffffffffffffffffffffffffffffffff168152602001826bffffffffffffffffffffffff19166bffffffffffffffffffffffff191681526020019250505060405180910390a15050565b60008190508073ffffffffffffffffffffffffffffffffffffffff1663af98f757336040518263ffffffff167c0100000000000000000000000000000000000000000000000000000000028152600401808273ffffffffffffffffffffffffffffffffffffffff1673ffffffffffffffffffffffffffffffffffffffff168152602001915050600060405180830381600087803b15156113ec57600080fd5b6102c65a03f115156113fd57600080fd5b5050507fae5c92a0fdd9e8ea374a650fbfb6c89ba81daa128b581d5036a2058e258dfb188233604051808373ffffffffffffffffffffffffffffffffffffffff1673ffffffffffffffffffffffffffffffffffffffff1681526020018273ffffffffffffffffffffffffffffffffffffffff1673ffffffffffffffffffffffffffffffffffffffff1681526020019250505060405180910390a15050565b60008390508073ffffffffffffffffffffffffffffffffffffffff1663188edd4f3385856040518463ffffffff167c0100000000000000000000000000000000000000000000000000000000028152600401808473ffffffffffffffffffffffffffffffffffffffff1673ffffffffffffffffffffffffffffffffffffffff1681526020018373ffffffffffffffffffffffffffffffffffffffff1673ffffffffffffffffffffffffffffffffffffffff16815260200180602001828103825283818151815260200191508051906020019080838360005b8381101561158e578082015181840152602081019050611573565b50505050905090810190601f1680156115bb5780820380516001836020036101000a031916815260200191505b50945050505050600060405180830381600087803b15156115db57600080fd5b6102c65a03f115156115ec57600080fd5b5050507f8a564a8f6d4500d1637cbf5dab946466ea5765ef3b82e429ffbc49743fa91b79848484604051808473ffffffffffffffffffffffffffffffffffffffff1673ffffffffffffffffffffffffffffffffffffffff1681526020018373ffffffffffffffffffffffffffffffffffffffff1673ffffffffffffffffffffffffffffffffffffffff16815260200180602001828103825283818151815260200191508051906020019080838360005b838110156116b757808201518184015260208101905061169c565b50505050905090810190601f1680156116e45780820380516001836020036101000a031916815260200191505b5094505050505060405180910390a150505050565b611701611a9e565b611709611a9e565b611711611a9e565b600080600080600080896bffffffffffffffffffffffff19166bffffffffffffffffffffffff1916815260200190815260200160002090508060010181600201826003018360040160009054906101000a90046c01000000000000000000000000028460050160009054906101000a900473ffffffffffffffffffffffffffffffffffffffff168560060154858054600181600116156101000203166002900480601f0160208091040260200160405190810160405280929190818152602001828054600181600116156101000203166002900480156118325780601f1061180757610100808354040283529160200191611832565b820191906000526020600020905b81548152906001019060200180831161181557829003601f168201915b50505050509550848054600181600116156101000203166002900480601f0160208091040260200160405190810160405280929190818152602001828054600181600116156101000203166002900480156118ce5780601f106118a3576101008083540402835291602001916118ce565b820191906000526020600020905b8154815290600101906020018083116118b157829003601f168201915b50505050509450838054600181600116156101000203166002900480601f01602080910402602001604051908101604052809291908181526020018280546001816001161561010002031660029004801561196a5780601f1061193f5761010080835404028352916020019161196a565b820191906000526020600020905b81548152906001019060200180831161194d57829003601f168201915b505050505093509650965096509650965096505091939550919395565b828054600181600116156101000203166002900490600052602060002090601f016020900481019282601f106119c857805160ff19168380011785556119f6565b828001600101855582156119f6579182015b828111156119f55782518255916020019190600101906119da565b5b509050611a039190611ab2565b5090565b828054600181600116156101000203166002900490600052602060002090601f016020900481019282601f10611a405780548555611a7d565b82800160010185558215611a7d57600052602060002091601f016020900482015b82811115611a7c578254825591600101919060010190611a61565b5b509050611a8a9190611ab2565b5090565b604051610f9380611ad883390190565b602060405190810160405280600081525090565b611ad491905b80821115611ad0576000816000905550600101611ab8565b5090565b9056006060604052341561000f57600080fd5b604051606080610f9383398101604052808051906020019091908051906020019091908051906020019091905050826000806101000a81548173ffffffffffffffffffffffffffffffffffffffff021916908373ffffffffffffffffffffffffffffffffffffffff16021790555081600160006101000a81548173ffffffffffffffffffffffffffffffffffffffff02191690836c010000000000000000000000009004021790555080600281905550505050610ec2806100d16000396000f3006060604052600436106100a4576000357c0100000000000000000000000000000000000000000000000000000000900463ffffffff168063188edd4f146100a95780632e1a7d4d146101445780633257b4f314610167578063365b98b2146101ae5780634e69d5601461021157806363c1dff7146102da5780638da5cb5b14610393578063a035b1fe146103e8578063af98f75714610411578063b3e367371461044a575b600080fd5b34156100b457600080fd5b610142600480803573ffffffffffffffffffffffffffffffffffffffff1690602001909190803573ffffffffffffffffffffffffffffffffffffffff1690602001909190803590602001908201803590602001908080601f016020809104026020016040519081016040528093929190818152602001838380828437820191505050505050919050506104bb565b005b341561014f57600080fd5b6101656004808035906020019091905050610724565b005b341561017257600080fd5b61017a6107e3565b60405180826bffffffffffffffffffffffff19166bffffffffffffffffffffffff1916815260200191505060405180910390f35b34156101b957600080fd5b6101cf6004808035906020019091905050610802565b604051808273ffffffffffffffffffffffffffffffffffffffff1673ffffffffffffffffffffffffffffffffffffffff16815260200191505060405180910390f35b341561021c57600080fd5b610224610841565b604051808573ffffffffffffffffffffffffffffffffffffffff1673ffffffffffffffffffffffffffffffffffffffff168152602001846bffffffffffffffffffffffff19166bffffffffffffffffffffffff1916815260200183815260200180602001828103825283818151815260200191508051906020019060200280838360005b838110156102c35780820151818401526020810190506102a8565b505050509050019550505050505060405180910390f35b34156102e557600080fd5b610311600480803573ffffffffffffffffffffffffffffffffffffffff16906020019091905050610927565b6040518080602001838152602001828103825284818151815260200191508051906020019080838360005b8381101561035757808201518184015260208101905061033c565b50505050905090810190601f1680156103845780820380516001836020036101000a031916815260200191505b50935050505060405180910390f35b341561039e57600080fd5b6103a6610a22565b604051808273ffffffffffffffffffffffffffffffffffffffff1673ffffffffffffffffffffffffffffffffffffffff16815260200191505060405180910390f35b34156103f357600080fd5b6103fb610a47565b6040518082815260200191505060405180910390f35b341561041c57600080fd5b610448600480803573ffffffffffffffffffffffffffffffffffffffff16906020019091905050610a4d565b005b6104b9600480803573ffffffffffffffffffffffffffffffffffffffff1690602001909190803590602001908201803590602001908080601f01602080910402602001604051908101604052809392919081815260200183838082843782019150505050505091905050610bcb565b005b60008060009054906101000a900473ffffffffffffffffffffffffffffffffffffffff1673ffffffffffffffffffffffffffffffffffffffff168473ffffffffffffffffffffffffffffffffffffffff1614151561051857600080fd5b600460008473ffffffffffffffffffffffffffffffffffffffff1673ffffffffffffffffffffffffffffffffffffffff16815260200190815260200160002090506001816001015414151561056c57600080fd5b6002816001018190555080600460008573ffffffffffffffffffffffffffffffffffffffff1673ffffffffffffffffffffffffffffffffffffffff168152602001908152602001600020600082018160000190805460018160011615610100020316600290046105dd929190610d16565b5060018201548160010155905050600380548060010182816105ff9190610d9d565b9160005260206000209001600085909190916101000a81548173ffffffffffffffffffffffffffffffffffffffff021916908373ffffffffffffffffffffffffffffffffffffffff160217905550507ff38a0dffdabb41df5256336e5e5c09a5805d741df30b494170107219aae9b1a48383604051808373ffffffffffffffffffffffffffffffffffffffff1673ffffffffffffffffffffffffffffffffffffffff16815260200180602001828103825283818151815260200191508051906020019080838360005b838110156106e35780820151818401526020810190506106c8565b50505050905090810190601f1680156107105780820380516001836020036101000a031916815260200191505b50935050505060405180910390a150505050565b6000809054906101000a900473ffffffffffffffffffffffffffffffffffffffff1673ffffffffffffffffffffffffffffffffffffffff163373ffffffffffffffffffffffffffffffffffffffff1614151561077f57600080fd5b6000809054906101000a900473ffffffffffffffffffffffffffffffffffffffff1673ffffffffffffffffffffffffffffffffffffffff166108fc829081150290604051600060405180830381858888f1935050505015156107e057600080fd5b50565b600160009054906101000a90046c010000000000000000000000000281565b60038181548110151561081157fe5b90600052602060002090016000915054906101000a900473ffffffffffffffffffffffffffffffffffffffff1681565b600080600061084e610dc9565b6000809054906101000a900473ffffffffffffffffffffffffffffffffffffffff16600160009054906101000a90046c010000000000000000000000000260025460038080548060200260200160405190810160405280929190818152602001828054801561091257602002820191906000526020600020905b8160009054906101000a900473ffffffffffffffffffffffffffffffffffffffff1673ffffffffffffffffffffffffffffffffffffffff16815260200190600101908083116108c8575b50505050509050935093509350935090919293565b61092f610ddd565b600080600460008573ffffffffffffffffffffffffffffffffffffffff1673ffffffffffffffffffffffffffffffffffffffff1681526020019081526020016000209050806000018160010154818054600181600116156101000203166002900480601f016020809104026020016040519081016040528092919081815260200182805460018160011615610100020316600290048015610a115780601f106109e657610100808354040283529160200191610a11565b820191906000526020600020905b8154815290600101906020018083116109f457829003601f168201915b505050505091509250925050915091565b6000809054906101000a900473ffffffffffffffffffffffffffffffffffffffff1681565b60025481565b6000600460003373ffffffffffffffffffffffffffffffffffffffff1673ffffffffffffffffffffffffffffffffffffffff168152602001908152602001600020905060018160010154141515610aa357600080fd5b3373ffffffffffffffffffffffffffffffffffffffff166108fc6002549081150290604051600060405180830381858888f193505050501515610ae557600080fd5b6000816001018190555080600460003373ffffffffffffffffffffffffffffffffffffffff1673ffffffffffffffffffffffffffffffffffffffff16815260200190815260200160002060008201816000019080546001816001161561010002031660029004610b56929190610d16565b50600182015481600101559050507f8a46aebe3d6766257a923c4a998b5fd32d693bd7877df2e25ea7b7099310da2b82604051808273ffffffffffffffffffffffffffffffffffffffff1673ffffffffffffffffffffffffffffffffffffffff16815260200191505060405180910390a15050565b600060025434141515610bdd57600080fd5b600460008473ffffffffffffffffffffffffffffffffffffffff1673ffffffffffffffffffffffffffffffffffffffff168152602001908152602001600020905081816000019080519060200190610c36929190610df1565b50600181600101819055507fac78c1708d4ceac6e5d7a850390ca5c2fbc9056e68b655ba9688d6f6e13ca4a18383604051808373ffffffffffffffffffffffffffffffffffffffff1673ffffffffffffffffffffffffffffffffffffffff16815260200180602001828103825283818151815260200191508051906020019080838360005b83811015610cd6578082015181840152602081019050610cbb565b50505050905090810190601f168015610d035780820380516001836020036101000a031916815260200191505b50935050505060405180910390a1505050565b828054600181600116156101000203166002900490600052602060002090601f016020900481019282601f10610d4f5780548555610d8c565b82800160010185558215610d8c57600052602060002091601f016020900482015b82811115610d8b578254825591600101919060010190610d70565b5b509050610d999190610e71565b5090565b815481835581811511610dc457818360005260206000209182019101610dc39190610e71565b5b505050565b602060405190810160405280600081525090565b602060405190810160405280600081525090565b828054600181600116156101000203166002900490600052602060002090601f016020900481019282601f10610e3257805160ff1916838001178555610e60565b82800160010185558215610e60579182015b82811115610e5f578251825591602001919060010190610e44565b5b509050610e6d9190610e71565b5090565b610e9391905b80821115610e8f576000816000905550600101610e77565b5090565b905600a165627a7a72305820bb2cc7c6a2e58a57b89356acb5334ca08e877ce2dea3ec23261fc2ba5c7a01cc0029a165627a7a72305820a06ab7ed4a3d2114b1928277bdeaa7c344dda43f037999eb82dbf3be5c9efa030029",
  "source": "pragma solidity ^0.4.17;\nimport \"Handler.sol\";\n\ncontract Register {\n    struct File {\n        bytes20 fid;\n        string title;\n        string keyword;\n        string summary;\n        bytes20 hash;\n        address owner;\n        uint status;\n    }\n\n    struct FHandler {\n        Handler addr;\n        uint status;\n    }\n\n    mapping(bytes20 => File) fileList;\n    mapping(bytes20 => FHandler) handlers;\n\n    event CreateFile(address owner, bytes20 fid, string title, \n                     string keyword, string summary, bytes20 hash);\n    event DeleteFile(address owner, bytes20 fid);\n    event NewHandler(address handler, bytes20 fid);\n    event RequestHandler(address handler, address from, string message);\n    event RespondHandler(address handler, address from, string password);\n    event CancelRequest(address handler, address from);\n\n    function Register() public {\n\n    }\n\n    function createFile(bytes20 _fid, string _title, string _keyword, \n                        string _summary, bytes20 _hash) public {\n        File storage newFile = fileList[_fid];\n        //require(newFile.status == 0);\n        newFile.fid = _fid;\n        newFile.title = _title;\n        newFile.owner = msg.sender;\n        newFile.keyword = _keyword;\n        newFile.summary = _summary;\n        newFile.hash = _hash;\n        newFile.status = 1;\n        fileList[_fid] = newFile;\n        CreateFile(msg.sender, _fid, _title, _keyword, _summary, _hash);\n    }\n\n    function getFile(bytes20 _fid) public view returns (string, string, string, bytes20, address,\n                                                        uint) {\n        File storage file = fileList[_fid];\n        return (file.title, file.keyword, file.summary, file.hash, file.owner, file.status);\n    }\n\n    function getHandler(bytes20 _fid) public view returns (address, uint) {\n        FHandler storage handler = handlers[_fid];\n        return (handler.addr, handler.status);\n    }\n\n    function deleteFile(bytes20 _fid) public {\n        File storage file = fileList[_fid];\n        require(file.status > 0);\n        require(file.owner == msg.sender);\n        file.status = 0;\n        fileList[_fid] = file;\n        DeleteFile(msg.sender, _fid);\n    }\n\n    function newHandler(bytes20 _fid, uint _price) public {\n        File storage file = fileList[_fid];\n        require(file.status > 0 && file.owner == msg.sender);\n        Handler newContract = new Handler(msg.sender, _fid, _price);\n        FHandler storage handler = handlers[_fid];\n        handler.addr = newContract;\n        handler.status = 1;\n        handlers[_fid] = handler;\n        NewHandler(newContract, _fid);\n    }\n\n    function requestHandler(address _addr, string _message) public payable {\n        Handler handlerContract = Handler(_addr);\n        handlerContract.requestFile.value(msg.value)(msg.sender, _message);\n        RequestHandler(_addr, msg.sender, _message);\n    }\n\n    function respondHandler(address _addr, address _from, string _password) public {\n        Handler handlerContract = Handler(_addr);\n        handlerContract.respondFile(msg.sender, _from, _password);\n        RespondHandler(_addr, _from, _password);\n    }\n\n    function cancelRequest(address _addr) public {\n        Handler handlerContract = Handler(_addr);\n        handlerContract.cancelRequest(msg.sender);\n        CancelRequest(_addr, msg.sender);\n    }\n\n}\n",
  "sourcePath": "/home/zqz/Documents/software-course/contract/contracts/Register.sol",
  "compiler": {
    "name": "solc",
    "version": "0.4.18+commit.9cf6e910.Emscripten.clang"
  },
  "schemaVersion": "1.0.1",
  "updatedAt": "2018-05-15T08:23:13.465Z"
}